:100000000C945D020C9467020C9467020C946702D6
:100010000C9467020C9467020C9467020C946702BC
:100020000C9467020C9467020C9467020C946702AC
:100030000C9467020C9467020C9467020C9467029C
:100040000C9467020C9467020C9467020C9467028C
:100050000C9467020C9467020C9467020C9467027C
:100060000C9467020C9467020C9467020C9467026C
:100070000C9467020C9467020C9467020C9467025C
:100080000C9467020C9467020C9467020C9467024C
:100090000C9467020C9467020C9467020C9467023C
:1000A0000C9467020C9467020C9467020C9467022C
:1000B0000C9467020C9467020C9467020C9467021C
:1000C0000C9467020C9467020C9467020C9467020C
:1000D0000C9467020C9467020C9467020C946702FC
:1000E0000C9467020C9467020C9467020C946702EC
:1000F0000C9467020C9467020C9467020C946702DC
:100100000C9467020C9467020C9467020C946702CB
:100110000C9467020C9467020C9467020C946702BB
:100120005772697465207375636365737366756C64
:100130000D0A000D0A526573706F6E73653A0D0AF1
:100140000057726974696E67203078353520746F96
:1001500020736563746F723A203078004572726F55
:100160007220746F6B656E3A0D0A000D0A5265734A
:10017000706F6E73653A0D0A000D0A52656164690D
:100180006E6720736563746F723A20307800534451
:10019000204361726420696E697469616C697A6573
:1001A000640D0A004572726F7220696E697469612C
:1001B0006C697A61696E6720534420434152440D53
:1001C0000A00094572726F720D0A00094343204507
:1001D00072726F720D0A00094361726420454343D5
:1001E000206661696C65640D0A00094461746120D0
:1001F0006F7574206F662072616E67650D0A000965
:100200004E6F74204572726F7220746F6B656E0D45
:100210000A000D0A000D0A000D0A000944657669FE
:1002200063652053697A653A20000D0A000954522B
:10023000414E5F53504545443A20000D0A00094E97
:100240005341433A20000D0A0009544141433A20EA
:10025000000D0A000943534420537472756374758A
:1002600072653A20004353443A0D0A000D0A000912
:100270004563686F3A20004E4F5420444546494E2E
:1002800045440D0A0052455345525645440D0A0057
:1002900052455345525645440D0A004C4F5720567F
:1002A0004F4C544147450D0A00322E372D332E3620
:1002B000560D0A0009566F6C7461676520416363CF
:1002C00065707465643A20000D0A0009436F6D6D16
:1002D000616E642056657273696F6E3A20000D0A74
:1002E00000332E352D332E3600332E342D332E355C
:1002F0002C2000332E332D332E342C2000332E327D
:100300002D332E332C2000332E312D332E322C2042
:1003100000332E302D332E312C2000322E392D3348
:100320002E302C2000322E382D322E392C20003247
:100330002E372D322E382C20000956444420576980
:100340006E646F773A2000425553590D0A00300D04
:100350000A00310D0A000943435320537461747538
:10036000733A200052454144590D0A000943617215
:100370006420506F776572205570205374617475D6
:10038000733A20000943617264204C6F636B6564AB
:100390000D0A0009575020457261736520536B693F
:1003A000700D0A00094572726F720D0A000943430D
:1003B000204572726F720D0A000945434320466161
:1003C000696C65640D0A000957502056696F6C61AD
:1003D00074696F6E0D0A0009457261736520506182
:1003E00072616D657465720D0A00094F7574206F36
:1003F000662052616E67650D0A00094E6F20523209
:10040000204572726F720D0A0009496E2049646CB2
:10041000652053746174650D0A0009457261736546
:10042000205265736574204572726F720D0A00095F
:10043000496C6C6567616C20436F6D6D616E640D16
:100440000A0009435243204572726F720D0A000977
:1004500045726173652053657175656E63652045EE
:1004600072726F720D0A00094164647265737320C1
:100470004572726F720D0A0009506172616D657488
:100480006572204572726F720D0A000943617264D1
:100490002052656164790D0A00094572726F723AE3
:1004A000204D5342203D20310D0A00094E6F20722D
:1004B0006573706F6E73650D0A0011241FBECFEF58
:1004C000D1E4DEBFCDBF0E94C6060C9459070C9440
:1004D00000001092C50080E18093C400E1ECF0E0E0
:1004E00080818861808308959091C00095FFFCCF42
:1004F0008093C6000895CF93DF93EC018991882300
:1005000019F00E947402FACFDF91CF910895CF9332
:10051000282F22952F70982F9F702A3010F480E397
:1005200001C087E3820F9A3010F4C0E301C0C7E333
:10053000C90F0E9474028C2FCF910C947402809189
:10054000C00087FFFCCF8091C6000895CF93DF9352
:10055000FC018491EF012196882321F00E9474020E
:10056000FE01F7CFDF91CF91089524B12C6224B919
:10057000249A2CB52064922B9CBD9DB5892B8DBDF2
:1005800008958EBD0DB407FEFDCF8EB50895CF93AF
:100590002A9A8FE39CE90197F1F700C000008FEFE2
:1005A0000E94C1022A9AC0E58FEF0E94C102C15089
:1005B000D9F7CF910895FF920F931F93CF93DF93B5
:1005C000D42F152F062FF72EC22F80640E94C10250
:1005D0008F2D0E94C102802F0E94C102812F0E9494
:1005E000C1028D2F0E94C1028C2F8160DF91CF91BB
:1005F0001F910F91FF900C94C102CF93C9E08FEF30
:100600000E94C1028F3F11F4C150C9F7CF910895E4
:10061000CF93DF93EC010E94FD0288838FEF0E944D
:10062000C1028983DF91CF9108950F931F93CF93D8
:100630008C01C62FCC2341F08FEF0E94C102F8013C
:1006400081938F01C150F6CFCF911F910F910895E3
:10065000CF93DF93EC010E94FD028883823038F44F
:1006600064E0CE010196DF91CF910C941503DF91E8
:10067000CF9108950C942803CF938FEF0E94C1026D
:100680002A988FEF0E94C10224E940E050E0BA01AD
:1006900080E00E94DB020E94FD02C82F8FEF0E94C3
:1006A000C1022A9A8FEF0E94C1028C2FCF91089528
:1006B000CF93DF93EC018FEF0E94C1022A988FEF56
:1006C0000E94C10226E84AEA51E060E070E088E05A
:1006D0000E94DB02CE010E9428038FEF0E94C1021C
:1006E0002A9A8FEFDF91CF910C94C102CF93DF93C1
:1006F000EC018FEF0E94C1022A988FEF0E94C10285
:1007000020E040E050E0BA018DE00E94DB02CE0123
:100710000E9408038FEF0E94C1022A9A8FEFDF9197
:10072000CF910C94C1028F929F92AF92BF92CF92C1
:10073000DF92EF92FF920F931F93CF93DF934B01C2
:100740005C016A0179018FEFF90180830E94C10287
:100750002A988FEF0E94C10220E0B501A40181E137
:100760000E94DB020E94FD02082F8F3F09F1CBE1BE
:10077000D6E0219739F08FEF0E94C102182F8F3FEA
:10078000C1F302C01FEF12C08E3F81F4E601FEEFFD
:10079000DF1A8FEF0E94C1028993CC16DD06C9F7DC
:1007A0008FEF0E94C1028FEF0E94C102F7011083F8
:1007B0008FEF0E94C1022A9A8FEF0E94C102802F00
:1007C000DF91CF911F910F91FF90EF90DF90CF902D
:1007D000BF90AF909F908F9008958F929F92AF920D
:1007E000BF92CF92DF92FF920F931F93CF93DF932D
:1007F0004B015C016A0189018FEFF90180830E943E
:10080000C1022A988FEF0E94C10220E0B501A40125
:1008100088E10E94DB020E94FD02F82E811128C0AF
:100820008EEF0E94C102E601FEEFDF1A89910E945D
:10083000C102CC15DD05D1F7C3E4DFE021978FEFCE
:1008400039F00E94C1028F3FC9F39FEFF8019083F6
:100850008F71853069F4F8018083C3E4DFE08FEFA6
:100860000E94C102811104C02197C9F7F8011082CA
:100870008FEF0E94C1022A9A8FEF0E94C1028F2D32
:10088000DF91CF911F910F91FF90DF90CF90BF909C
:10089000AF909F908F900895CF93DF93EC018FEFEF
:1008A0000E94C1022A988FEF0E94C1028F3FD9F7A0
:1008B00020E040E050E0BA018AE30E94DB02CE0172
:1008C0000E9428038FEF0E94C1022A9A8FEFDF91C6
:1008D000CF910C94C102CF938FEF0E94C1022A984E
:1008E0008FEF0E94C10220E040E050E0BA0187E3B0
:1008F0000E94DB020E94FD02C82F8FEF0E94C102FE
:100900002A9A8FEF0E94C1028C2FCF910895CF9326
:100910008FEF0E94C1022A988FEF0E94C10220E04F
:1009200040E050E060E070E489E20E94DB020E9457
:10093000FD02C82F8FEF0E94C1022A9A8FEF0E94FA
:10094000C1028C2FCF9108950F931F93CF93DF9304
:1009500000D000D01F92CDB7DEB70E94C7021FEFB4
:100960000E943C038983813021F01150C9F711E0C6
:100970002FC08FE99FE00197F1F700C00000CE0182
:1009800001960E9458038981813089F78D818A3AC6
:1009900071F70FEF0E946B048983823018F40E9474
:1009A000870489838FE99FE00197F1F700C0000079
:1009B0001981112319F0015069F7D9CF8FE99FE010
:1009C0000197F1F700C00000CE0101960E944C048F
:1009D000812F0F900F900F900F900F90DF91CF917C
:1009E0001F910F910895CF938F3F19F48BEA94E0F4
:1009F00033C087FF03C089E994E02EC0811103C092
:100A00008BE894E029C0C82F86FF04C088E794E0F3
:100A10000E94A602C5FF04C087E694E00E94A602D9
:100A2000C4FF04C08FE494E00E94A602C3FF04C088
:100A300082E494E00E94A602C2FF04C08FE294E028
:100A40000E94A602C1FF04C08AE194E00E94A602AF
:100A5000C0FF05C089E094E0CF910C94A602CF912D
:100A60000895CF93DF93EC0188810E94F30488817D
:100A70008F3F09F441C08981811104C08AEF93E05E
:100A80000E94A602898187FF04C08AEE93E00E943B
:100A9000A602898186FF04C087ED93E00E94A6022A
:100AA000898185FF04C087EC93E00E94A6028981BA
:100AB00084FF04C089EB93E00E94A602898183FF32
:100AC00004C08DEA93E00E94A602898182FF04C0DF
:100AD00084EA93E00E94A602898181FF04C083E931
:100AE00093E00E94A602898180FF06C084E893E01B
:100AF000DF91CF910C94A602DF91CF910895CF930F
:100B0000DF93EC0188810E94F3048881823008F031
:100B100065C08CE693E00E94A602898186FF11C021
:100B200084E693E00E94A60286E593E00E94A60276
:100B3000898186FF03C082E593E005C08EE493E0DF
:100B400002C087E493E00E94A60289E393E00E943A
:100B5000A6028B8187FF04C08FE293E00E94A60269
:100B60008A8180FF04C085E293E00E94A6028A8108
:100B700081FF04C08BE193E00E94A6028A8182FF7C
:100B800004C081E193E00E94A6028A8183FF04C031
:100B900087E093E00E94A6028A8184FF04C08DEF63
:100BA00092E00E94A6028A8185FF04C083EF92E052
:100BB0000E94A6028A8186FF04C089EE92E00E940C
:100BC000A6028A8187FF04C081EE92E00E94A602FD
:100BD0008EED92E0DF91CF910C94A602DF91CF9140
:100BE0000895CF93DF93EC0188810E94F3048881FC
:100BF0008230B0F58BEC92E00E94A60280E00E9469
:100C0000870288EC92E00E94A60284EB92E00E94A8
:100C1000A6028B818F71813019F489EA92E011C0AC
:100C2000823019F48BE992E00CC0843019F480E929
:100C300092E007C0883019F485E892E002C087E7A7
:100C400092E00E94A6028FE692E00E94A6028C81AA
:100C50000E9487028CE692E0DF91CF910C94A6026D
:100C6000DF91CF910895CF93DF93EC0185E692E079
:100C70000E94A60284E592E00E94A60288818295E5
:100C80008695869583700E94870281E592E00E9496
:100C9000A60289E492E00E94A60289810E9487024E
:100CA00086E492E00E94A6028EE392E00E94A602F1
:100CB0008A810E9487028BE392E00E94A6028DE265
:100CC00092E00E94A6028B810E9487028AE292E053
:100CD0000E94A6028BE192E00E94A6028F818F7390
:100CE0000E94870288850E94870289850E94870268
:100CF00088E192E0DF91CF910C94A602EF92FF92EF
:100D00001F93CF93DF93EC017C018EEFF81A10E074
:100D100089910E948702133131F485E192E00E94AB
:100D2000A60210E004C080E20E9474021F5FEC166D
:100D3000FD0671F782E192E0DF91CF911F91FF9064
:100D4000EF900C94A602CF93C82F807F21F08FEFF5
:100D500091E00E94A602C3FF04C08AEE91E00E94C7
:100D6000A602C2FF04C087ED91E00E94A602C1FF67
:100D700004C08BEC91E00E94A602C0FF05C082EC8B
:100D800091E0CF910C94A602CF910895CF93DF9379
:100D9000CDB7DEB7C150D2400FB6F894DEBF0FBE5C
:100DA000CDBF0E94690280E093E10E94B5020E94DB
:100DB000A404882329F084EA91E00E94A60278C066
:100DC0008EE891E00E94A60289E791E00E94A602C7
:100DD00080E00E94870280E00E94870280E00E94FB
:100DE000870280E00E9487027E018FEFE81A8DEF74
:100DF000F80A9701AE014F5F5F4F60E070E0CB01F2
:100E00000E949303182F8BE691E00E94A602812F87
:100E10000E94F30411110DC0F70180818E3F49F447
:100E2000CE0101960E947E068E010F5F1F4F85E561
:100E30000DC0F7018081807FB9F78CE591E00E94B9
:100E4000A602F70180810E94A306EECFF8018193EC
:100E50008F01EE15FF05D1F781E491E00E94A60213
:100E600080E00E94870280E00E94870281E00E9469
:100E7000870280E00E9487029801AE014F5F5F4FBA
:100E800060E071E080E090E00E94ED03F82E83E3E3
:100E900091E00E94A6028F2D0E94F304F11008C079
:100EA000F8018081853021F480E291E00E94A60261
:060EB000FFCFF894FFCF14
:00000001FF
